:1000000071C000008EC000008CC000008AC00000DB
:1000100088C0000086C0000084C0000082C00000CC
:1000200080C000007EC000007CC000007AC00000DC
:1000300078C0000076C0000074C0000072C00000EC
:1000400070C000006EC000006CC000006AC00000FC
:1000500068C0000066C0000064C0000062C000000C
:1000600060C000005EC000005CC000005AC000001C
:1000700058C0000034C1000054C0000052C000004D
:1000800050C000004EC000004CC000004AC000003C
:1000900048C0000046C0000044C0000042C000004C
:1000A00040C000003EC000003CC000003AC000005C
:1000B00038C0000036C0000034C0000032C000006C
:1000C00030C000002EC000002CC000002AC000007C
:1000D00028C0000026C0000024C0000022C000008C
:1000E00020C0000011241FBECFEFD1E2DEBFCDBF84
:1000F00000E00CBF12E0A0E0B2E0E0E7FEE000E0CC
:100100000BBF02C007900D92A631B107D9F722E0CC
:10011000A6E1B2E001C01D92AB38B207E1F7F8D218
:10012000A5C66ECFF894A6D384B1806284B984B199
:10013000806484B984B1806184B9E1E0F1E08081B8
:10014000806480838DB188608DB98DB180618DB9F7
:10015000808188608083808180618083A1E8B0E0B5
:100160008C918E7F8C938C918D7F8C938C918460FD
:100170008C93E0E8F0E080818160808380818D7FD6
:1001800080838C91877F8C9380818F7B808380811B
:100190008068808380818F7E80838081806280837D
:1001A000109289001092880010928B0010928A00A1
:1001B000A1EBB0E08C918E7F8C938C918D7F8C9392
:1001C0008C9184608C93E0EBF0E08081816080838F
:1001D00080818D7F80838C91877F8C9380818F7BC2
:1001E000808380818068808380818F7E808380810E
:1001F000806280831092B3001092B400A1E9B0E055
:100200008C918E7F8C938C918D7F8C938C9184605C
:100210008C93E0E9F0E080818160808380818D7F34
:1002200080838C91877F8C9380818F7B808380817A
:100230008068808380818F7E8083808180628083DC
:10024000109299001092980010929B0010929A00C0
:10025000A1EAB0E08C918E7F8C938C918D7F8C93F2
:100260008C9184608C93E0EAF0E0808181608083EF
:1002700080818D7F80838C91877F8C9380818F7B21
:10028000808380818068808380818F7E808380816D
:10029000806280831092A9001092A8001092AB0097
:1002A0001092AA0081B18E7F81B981B18B7F81B913
:1002B00081B18F7E81B981B18F7B81B987B18F7711
:1002C00087B987B18F7D87B987B18D7F87B98AB1AB
:1002D0008F778AB983B38D7F83BB789408951F92FB
:1002E0000F920FB60F9211240BB60F922F933F93DC
:1002F0004F935F936F937F938F939F93AF93BF932E
:10030000CF93DF93EF93FF93C8E7D0E08881998183
:100310009F938F9380E092E09F938F9387E292E088
:100320009F938F93C8D287E292E0B9D28881998156
:100330000F900F900F900F900F900F908139914078
:1003400060F086E0E9E0F2E0A7E2B2E001900D9211
:100350008A95E1F787E292E0A2D2FF91EF91DF91D7
:10036000CF91BF91AF919F918F917F916F915F914D
:100370004F913F912F910F900BBE0F900FBE0F909A
:100380001F90189522273327281B390B12161306A6
:100390004CF410928B0010928A00309389002093C5
:1003A00088000895109289001092880090938B0025
:1003B00080938A00089591958195910918161906E0
:1003C0002CF41092B4008093B30008951092B300FF
:1003D00081958093B4000895181619064CF4109274
:1003E0009B0010929A009093990080939800089532
:1003F000109299001092980091958195910990938F
:100400009B0080939A000895181619064CF41092D8
:10041000AB001092AA009093A9008093A8000895C1
:100420001092A9001092A80091958195910990933E
:10043000AB008093AA000895CF93DF93EC01A2DF75
:10044000CE01B9DFCE01C8DFCE01DEDFDF91CF9173
:100450000895CF93DF93CC27DD27C81BD90BCE019E
:1004600091DFCE01A8DFCE01B7DFCE01CDDFDF9176
:10047000CF9108950F931F93CF93DF93EC01002743
:100480001127081B190BC8017DDFCE0194DFCE01B7
:10049000A3DFC801B9DFDF91CF911F910F910895BC
:1004A0000F931F93CF93DF93EC016CDF002711278D
:1004B0000C1B1D0BC8017FDFC8018EDFCE01A4DF3E
:1004C000DF91CF911F910F910895CF93DF93EC01AE
:1004D00080E090E057DFCE016EDFCE017DDF80E06F
:1004E00090E092DFDF91CF910895CF93DF93EC01FD
:1004F00049DF80E090E05FDF80E090E06DDFCE01DB
:1005000083DFDF91CF910895CF93DF93CC27DD2751
:10051000C81BD90BCE0136DF80E090E04CDF80E0D5
:1005200090E05ADFCE0170DFDF91CF910895CF9335
:10053000DF93EC0180E090E025DFD195C195D109F2
:10054000CE0139DFCE0148DF80E090E05DDFDF9152
:10055000CF9108950F931F93CF93DF93EC01002762
:100560001127081B190BC8010DDFCE0124DFC801BC
:1005700033DFCE0149DFDF91CF911F910F910895B5
:100580000F931F93CF93DF93EC01FCDE002711271D
:100590000C1B1D0BC8010FDFCE011EDFC80134DFAD
:1005A000DF91CF911F910F91089580E090E0EADEF6
:1005B00080E090E000DF80E090E00EDF80E090E0FF
:1005C00023CF08952FEF33E284EF21503040804055
:1005D000E1F700C000008FEF90E02EDF9FEF23EDEA
:1005E00030E3915020403040E1F700C000008FEF31
:1005F00090E08ADF8FEF99E628E18150904020401B
:10060000E1F700C000008FEF90E023DF3FEF89E6C5
:1006100098E1315080409040E1F700C000008FEF3A
:1006200090E085DF2FEF39E688E1215030408040AF
:10063000E1F700C000008FEF90E032DF9FEF29E686
:1006400038E1915020403040E1F700C000008FEFCA
:1006500090E04BDF8FEF90E0EFDE8FEF99E628E13F
:10066000815090402040E1F700C000008FEF90E003
:100670002CDF3FEF89E698E1315080409040E1F770
:1006800000C000008FEF90E0F5DE2FEF39E688E143
:10069000215030408040E1F700C0000086DF9FEF2E
:1006A0002BE732E9915020403040E1F700C00000D4
:1006B00084E690E0CEDE8FEF93ED20E38150904012
:1006C0002040E1F700C0000088EC90E043DF3FEFFE
:1006D0008BE792E9315080409040E1F700C0000084
:1006E00088EC90E04DDF2FEF3BE782E9215030406E
:1006F0008040E1F700C0000058DF9AEA26EE36E9B4
:1007000081E09150204030408040D9F700000895AA
:1007100009DD86E0E9E0F2E0A7E2B2E001900D92A7
:100720008A95E1F787E292E0BAD04CDF1092270277
:10073000009B0EC0E7E2F2E082E69CE691838083B4
:100740008AE090E09383828384E690E0DDDE8EC0D1
:10075000029B0BC0E7E2F2E082E69AE0918380839D
:10076000128284E690E075DE81C0049B0BC0E7E254
:10077000F2E086E69AE091838083128284E690E03C
:100780005BDE74C0069B0EC0E7E2F2E082E692E711
:10079000918380838AE090E09383828384E690E073
:1007A000C6DE64C0379B0BC0E7E2F2E082E79AE066
:1007B00091838083128284E690E072DE57C0359B7D
:1007C0000EC0E7E2F2E086E692E7918380838AE05A
:1007D00090E09383828384E690E087DE47C0339B7A
:1007E0000EC0E7E2F2E082E79CE6918380838AE034
:1007F00090E09383828384E690E0C2DE37C0319B31
:100800000EC0E7E2F2E082E792E7918380838AE01C
:1008100090E09383828384E690E09CDE27C04F9B28
:100820000BC0E7E2F2E08CE69AE0918380831282CB
:1008300084E690E01FDE1AC0919B0EC0E7E2F2E072
:1008400086E69CE6918380838AE090E093838283AE
:1008500084E690E03ADE0AC086E0EFE0F2E0A7E24C
:10086000B2E001900D928A95E1F79FDE87E292E077
:1008700016D05ECF1092C50087E68093C40088E151
:100880008093C100E2ECF0E086E0808380810895EF
:100890009091C00095FFFCCF8093C6000895CF9340
:1008A000DF93EC0102C0F4DF219688818111FBCF38
:1008B000DF91CF9108950F931F93CF93DF93CDB71F
:1008C000DEB72E970FB6F894DEBF0FBECDBF0E89F0
:1008D0001F8986E08C831A8309838FEF9FE79E83AD
:1008E0008D83AE01465E5F4F688D798DCE01019696
:1008F00010D0EF81F885E00FF11F10822E960FB611
:10090000F894DEBF0FBECDBFDF91CF911F910F9145
:1009100008952F923F924F925F926F927F928F92A3
:100920009F92AF92BF92CF92DF92EF92FF920F937E
:100930001F93CF93DF93CDB7DEB72B970FB6F89405
:10094000DEBF0FBECDBF6C017B018A01FC011782A7
:100950001682838181FFBFC1CE0101963C01F60161
:100960009381F70193FD859193FF81917F01882306
:1009700009F4ADC1853239F493FD859193FF8191DE
:100980007F01853221F4B60190E0D6D1E8CF912CD9
:10099000212C312CFFE1F315D8F08B3279F038F4AB
:1009A000803279F08332A1F4232D20611DC08D3275
:1009B00061F0803369F4232D216016C0832D82609D
:1009C000382EE32DE4603E2E2AC0F32DF8601DC0C2
:1009D00037FC2DC020ED280F2A3040F08E32B9F4BC
:1009E00036FC75C1232D2064322E19C036FE06C098
:1009F0008AE0989E200D1124922E11C0EAE02E9ECE
:100A0000200D1124222EF32DF0623F2E08C08C36CB
:100A100021F4832D8068382E02C0883641F4F70116
:100A200093FD859193FF81917F018111B3CF982F21
:100A30009F7D9554933028F40C5F1F4F9FE399835B
:100A40000DC0833631F0833771F0833509F055C01E
:100A500020C0F801808189830E5F1F4F8824839412
:100A6000912C530112C02801F2E04F0E511CF801E5
:100A7000A080B18036FE03C0692D70E002C06FEF28
:100A80007FEFC5014ED14C018201F32DFF773F2E40
:100A900015C0280122E0420E511CF801A080B1804F
:100AA00036FE03C0692D70E002C06FEF7FEFC50115
:100AB0002DD14C01F32DF0683F2E820133FC19C07B
:100AC000822D90E088169906A0F4B60180E290E0AD
:100AD00033D12A94F5CFF50137FC859137FE81910A
:100AE0005F01B60190E028D121102A9421E0821AFA
:100AF00091088114910479F7E1C0843611F08936A8
:100B000039F5F80137FE07C06081718182819381D8
:100B10000C5F1F4F08C060817181072E000C880B8D
:100B2000990B0E5F1F4FF32DFF763F2E97FF09C0E5
:100B300090958095709561957F4F8F4F9F4FF0688E
:100B40003F2E2AE030E0A30133D1882E861844C01E
:100B5000853731F4232D2F7EB22E2AE030E025C0D8
:100B6000932D997FB92E8F36C1F018F4883579F01E
:100B7000AEC0803719F0883721F0A9C0E92FE061B5
:100B8000BE2EB4FE0DC0FB2DF460BF2E09C034FE96
:100B90000AC0292F2660B22E06C028E030E005C02A
:100BA00020E130E002C020E132E0F801B7FE07C0EA
:100BB00060817181828193810C5F1F4F06C06081CB
:100BC000718180E090E00E5F1F4FA301F1D0882E6D
:100BD0008618FB2DFF773F2E36FE0DC0232D2E7F6E
:100BE000A22E891458F434FE0BC032FC09C0832DA8
:100BF0008E7EA82E05C0B82CA32C03C0B82C01C033
:100C0000B92CA4FE0FC0FE01E80DF11D80818033D8
:100C100021F49A2D997EA92E09C0A2FE06C0B39494
:100C2000B39404C08A2D867809F0B394A3FC10C055
:100C3000A0FE06C0B21480F4280C922C9B180DC0A4
:100C4000B21458F4B60180E290E076D0B394F8CFB5
:100C5000B21418F42B1802C0982C212CA4FE0FC03B
:100C6000B60180E390E068D0A2FE16C0A1FC03C0EC
:100C700088E790E002C088E590E0B6010CC08A2DBC
:100C8000867851F0A1FE02C08BE201C080E2A7FC91
:100C90008DE2B60190E050D0891430F4B60180E3C3
:100CA00090E04AD09A94F8CF8A94F301E80DF11DB0
:100CB0008081B60190E040D08110F6CF222009F467
:100CC0004ECEB60180E290E037D02A94F7CFF601FD
:100CD0008681978102C08FEF9FEF2B960FB6F89415
:100CE000DEBF0FBECDBFDF91CF911F910F91FF905F
:100CF000EF90DF90CF90BF90AF909F908F907F90BC
:100D00006F905F904F903F902F900895FC01059059
:100D1000615070400110D8F7809590958E0F9F1FFD
:100D20000895FC016150704001900110D8F7809542
:100D300090958E0F9F1F08950F931F93CF93DF936E
:100D4000FB01238121FD03C08FEF9FEF2CC022FF09
:100D500016C046815781248135814217530744F4D8
:100D6000A081B1819D012F5F3F4F318320838C9300
:100D7000268137812F5F3F4F3783268314C08B0135
:100D8000EC01FB010084F185E02D1995892BE1F63A
:100D9000D80116968D919C911797019617969C9362
:100DA0008E931697CE01DF91CF911F910F910895E9
:100DB000FA01AA27283051F1203181F1E8946F938C
:100DC0006E7F6E5F7F4F8F4F9F4FAF4FB1E03ED032
:100DD000B4E03CD0670F781F891F9A1FA11D680FD0
:100DE000791F8A1F911DA11D6A0F711D811D911D03
:100DF000A11D20D009F468943F912AE0269F112478
:100E00003019305D3193DEF6CF010895462F4770DB
:100E1000405D4193B3E00FD0C9F7F6CF462F4F7036
:100E2000405D4A3318F0495D31FD4052419302D094
:100E3000A9F7EACFB4E0A69597958795779567953A
:100E4000BA95C9F700976105710508959B01AC013A
:100E50000A2E06945795479537952795BA95C9F761
:100E6000620F731F841F951FA01D0895F894FFCF74
:100E70004144433A2025640A00746573740A007380
:060E8000746F700A00000F
:00000001FF
